:020000040800F2
:100000000050002065130008E10E0008ED0E000806
:10001000F30E0008F90E0008FF0E000800000000B3
:10002000000000000000000000000000050F0008B4
:10003000110F0008000000001D0F0008290F000824
:10004000AD130008AD130008AD130008AD13000890
:10005000AD130008AD130008AD130008AD13000880
:10006000AD130008AD130008AD130008AD13000870
:10007000AD130008AD130008AD130008AD13000860
:10008000AD130008AD130008AD130008AD13000850
:10009000AD130008AD130008AD130008AD13000840
:1000A000AD130008AD130008AD130008AD13000830
:1000B000AD130008AD130008AD130008AD13000820
:1000C000AD130008AD130008AD130008AD13000810
:1000D000AD130008AD130008AD130008AD13000800
:1000E000AD130008AD130008AD13000800000000B8
:1000F0000000000000000000000000000000000000
:0C01000000000000000000005FF808F1A3
:1001100010B5054C237833B9044B13B10448AFF341
:1001200000800123237010BDDC01002000000000CE
:100130006C5D000808B5034B1BB103490348AFF3DE
:10014000008008BD00000000E00100206C5D000898
:10015000034613F8012B002AFBD1181A0138704707
:1001600081F0004102E000BF83F0004330B54FEA68
:1001700041044FEA430594EA050F08BF90EA020FD5
:100180001FBF54EA000C55EA020C7FEA645C7FEA68
:10019000655C00F0E2804FEA5454D4EB5555B8BF8B
:1001A0006D420CDD2C4480EA020281EA030382EAFC
:1001B000000083EA010180EA020281EA0303362D8E
:1001C00088BF30BD11F0004F4FEA01314FF4801C61
:1001D0004CEA113102D0404261EB410113F0004F73
:1001E0004FEA03334CEA133302D0524263EB43032A
:1001F00094EA050F00F0A780A4F10104D5F1200EC8
:100200000DDB02FA0EFC22FA05F2801841F1000122
:1002100003FA0EF2801843FA05F359410EE0A5F1F6
:1002200020050EF1200E012A03FA0EFC28BF4CF027
:10023000020C43FA05F3C01851EBE37101F00045DD
:1002400007D54FF0000EDCF1000C7EEB00006EEBEA
:100250000101B1F5801F1BD3B1F5001F0CD3490874
:100260005FEA30004FEA3C0C04F101044FEA4452CB
:1002700012F5800F80F09A80BCF1004F08BF5FEA52
:10028000500C50F1000041EB045141EA050130BD32
:100290005FEA4C0C404141EB010111F4801FA4F1D5
:1002A0000104E9D191F0000F04BF01460020B1FA2A
:1002B00081F308BF2033A3F10B03B3F120020CDA62
:1002C0000C3208DD02F1140CC2F10C0201FA0CF040
:1002D00021FA02F10CE002F11402D8BFC2F1200CA5
:1002E00001FA02F120FA0CFCDCBF41EA0C0190405B
:1002F000E41AA2BF01EB0451294330BD6FEA0404A4
:100300001F3C1CDA0C340EDC04F11404C4F120028E
:1003100020FA04F001FA02F340EA030021FA04F3A0
:1003200045EA030130BDC4F10C04C4F1200220FAF7
:1003300002F001FA04F340EA0300294630BD21FA35
:1003400004F0294630BD94F0000F83F4801306BFFB
:1003500081F480110134013D4EE77FEA645C18BFEF
:100360007FEA655C29D094EA050F08BF90EA020F86
:1003700005D054EA000C04BF1946104630BD91EA7E
:10038000030F1EBF0021002030BD5FEA545C05D181
:100390004000494128BF41F0004130BD14F58004C0
:1003A0003CBF01F5801130BD01F0004545F0FE4134
:1003B00041F470014FF0000030BD7FEA645C1ABF69
:1003C000194610467FEA655C1CBF0B46024650EAA0
:1003D000013406BF52EA033591EA030F41F40021CC
:1003E00030BD00BF90F0000F04BF0021704730B552
:1003F0004FF4806404F132044FF000054FF0000127
:1004000050E700BF90F0000F04BF0021704730B5E7
:100410004FF4806404F1320410F0004548BF4042BC
:100420004FF000013EE700BF42004FEAE2014FEA11
:1004300031014FEA02701FBF12F07F4393F07F4FEC
:1004400081F06051704732F07F4208BF704793F0EF
:100450007F4F04BF41F40021704730B54FF4607402
:1004600001F0004521F000411CE700BF50EA010205
:1004700008BF704730B54FF000050AE050EA0102AE
:1004800008BF704730B511F0004502D5404261EB1E
:1004900041014FF4806404F132045FEA915C3FF45F
:1004A000D8AE4FF003025FEADC0C18BF03325FEAFC
:1004B000DC0C18BF033202EBDC02C2F1200300FAAD
:1004C00003FC20FA02F001FA03FE40EA0E0021FAD2
:1004D00002F11444BDE600BF70B54FF0FF0C4CF4C0
:1004E000E06C1CEA11541DBF1CEA135594EA0C0F72
:1004F00095EA0C0F00F0DEF82C4481EA030621EAAD
:100500004C5123EA4C5350EA013518BF52EA0335E7
:1005100041F4801143F4801338D0A0FB02CE4FF099
:100520000005E1FB02E506F00042E0FB03E54FF0C9
:100530000006E1FB03569CF0000F18BF4EF0010EC1
:10054000A4F1FF04B6F5007F64F5407404D25FEABD
:100550004E0E6D4146EB060642EAC62141EA555170
:100560004FEAC52040EA5E504FEACE2EB4F1FD0CB2
:1005700088BFBCF5E06F1ED8BEF1004F08BF5FEA30
:10058000500E50F1000041EB045170BD06F00046E2
:1005900046EA010140EA020081EA0301B4EB5C048F
:1005A000C2BFD4EB0C0541EA045170BD41F4801187
:1005B0004FF0000E013C00F3AB8014F1360FDEBFAC
:1005C000002001F0004170BDC4F10004203C35DA88
:1005D0000C341BDC04F11404C4F1200500FA05F30B
:1005E00020FA04F001FA05F240EA020001F00042AC
:1005F00021F0004110EBD37021FA04F642EB060122
:100600005EEA430E08BF20EAD37070BDC4F10C044B
:10061000C4F1200500FA04F320FA05F001FA04F20F
:1006200040EA020001F0004110EBD37041F10001FB
:100630005EEA430E08BF20EAD37070BDC4F1200506
:1006400000FA05F24EEA020E20FA04F301FA05F26E
:1006500043EA020321FA04F001F0004121FA04F216
:1006600020EA020000EBD3705EEA430E08BF20EAE6
:10067000D37070BD94F0000F0FD101F00046400020
:1006800041EB010111F4801F08BF013CF7D041EAA2
:10069000060195F0000F18BF704703F000465200A6
:1006A00043EB030313F4801F08BF013DF7D043EA77
:1006B0000603704794EA0C0F0CEA135518BF95EA2D
:1006C0000C0F0CD050EA410618BF52EA4306D1D1B4
:1006D00081EA030101F000414FF0000070BD50EAD3
:1006E000410606BF1046194652EA430619D094EA5D
:1006F0000C0F02D150EA013613D195EA0C0F05D147
:1007000052EA03361CBF104619460AD181EA03019A
:1007100001F0004141F0FE4141F470014FF0000052
:1007200070BD41F0FE4141F4780170BD70B54FF0ED
:10073000FF0C4CF4E06C1CEA11541DBF1CEA13556D
:1007400094EA0C0F95EA0C0F00F0A7F8A4EB05044F
:1007500081EA030E52EA03354FEA013100F0888046
:100760004FEA03334FF0805545EA131343EA12630F
:100770004FEA022245EA111545EA10654FEA0026C4
:100780000EF000419D4208BF964244F1FD0404F57D
:10079000407402D25B084FEA3202B61A65EB0305D9
:1007A0005B084FEA32024FF480104FF4002CB6EB96
:1007B000020E75EB030E22BFB61A754640EA0C0016
:1007C0005B084FEA3202B6EB020E75EB030E22BF56
:1007D000B61A754640EA5C005B084FEA3202B6EB97
:1007E000020E75EB030E22BFB61A754640EA9C0056
:1007F0005B084FEA3202B6EB020E75EB030E22BF26
:10080000B61A754640EADC0055EA060E18D04FEAE3
:10081000051545EA16754FEA06164FEAC30343EA83
:1008200052734FEAC2025FEA1C1CC0D111F4801F50
:100830000BD141EA00014FF000004FF0004CB6E749
:1008400011F4801F04BF01430020B4F1FD0C88BFE8
:10085000BCF5E06F3FF6AFAEB5EB030C04BFB6EBF3
:10086000020C5FEA500C50F1000041EB045170BDE6
:100870000EF0004E4EEA113114EB5C04C2BFD4EB13
:100880000C0541EA045170BD41F480114FF0000E97
:10089000013C90E645EA060E8DE60CEA135594EA13
:1008A0000C0F08BF95EA0C0F3FF43BAF94EA0C0F16
:1008B0000AD150EA01347FF434AF95EA0C0F7FF48B
:1008C00025AF104619462CE795EA0C0F06D152EADF
:1008D00003353FF4FDAE1046194622E750EA4106C3
:1008E00018BF52EA43067FF4C5AE50EA41047FF4D4
:1008F0000DAF52EA43057FF4EBAE12E74FF0FF3C39
:1009000006E000BF4FF0010C02E000BF4FF0010C09
:100910004DF804CD4FEA410C7FEA6C5C4FEA430C82
:1009200018BF7FEA6C5C1BD001B050EA410C0CBFD1
:1009300052EA430C91EA030F02BF90EA020F002033
:10094000704710F1000F91EA030F58BF994208BF9A
:1009500090422CBFD8176FEAE37040F00100704757
:100960004FEA410C7FEA6C5C02D150EA013C07D1AE
:100970004FEA430C7FEA6C5CD6D152EA033CD3D0F9
:100980005DF8040B704700BF8446104662468C46F3
:100990001946634600E000BF01B5FFF7B7FF002826
:1009A00048BF10F1000F01BD4DF808EDFFF7F4FF4F
:1009B0000CBF012000205DF808FB00BF4DF808EDDA
:1009C000FFF7EAFF34BF012000205DF808FB00BFFD
:1009D0004DF808EDFFF7E0FF94BF012000205DF81F
:1009E00008FB00BF4DF808EDFFF7CEFF94BF0120D4
:1009F00000205DF808FB00BF4DF808EDFFF7C4FFCD
:100A000034BF012000205DF808FB00BF4FEA410C15
:100A10007FEA6C5C02D150EA013C0AD14FEA430CF8
:100A20007FEA6C5C02D152EA033C02D14FF0000035
:100A300070474FF0010070474FEA410212F5001273
:100A400015D211D56FF47873B3EB625212D94FEA15
:100A5000C12343F0004343EA505311F0004F23FAFF
:100A600002F018BF404270474FF00000704750EA54
:100A7000013005D111F0004008BF6FF00040704711
:100A80004FF00000704700BF4FEA4102B2F1E0436F
:100A900024BFB3F5001CDCF1FE5C0DD901F0004C65
:100AA0004FEAC0024CEA5070B2F1004F40EB8300B5
:100AB00008BF20F00100704711F0804F21D113F1E1
:100AC0003872BCBF01F00040704741F480114FEA1A
:100AD0005252C2F11802C2F1200C10FA0CF320FAA3
:100AE00002F018BF40F001004FEAC1234FEAD323C0
:100AF00003FA0CFC40EA0C0023FA02F34FEA43032A
:100B0000CCE77FEA625307D150EA01331EBF4FF0B2
:100B1000FE4040F44000704701F0004040F0FE40CD
:100B200040F40000704700BF80B586B002AF0346B6
:100B30000A46FB711346BB71FB793B73BB797B7330
:100B400007F10C02642300930223A621034801F05D
:100B500029F800BF1037BD4680BD00BF2402002029
:100B600080B586B004AF0346FB71FB799AB264236B
:100B7000029306230193054B00930123A621044809
:100B800001F01EF900BF0837BD4680BD18020020E5
:100B90002402002080B586B004AF0346FB71FB79C8
:100BA0009AB26423029301230193054B009301231E
:100BB000A621044801F004F900BF0837BD4680BDF6
:100BC000F80100202402002080B500AF0020FFF7CC
:100BD000E1FF0A4B1B781946094803F0F1F901219E
:100BE0003120FFF7A1FF00212D20FFF79DFF0821F5
:100BF0002D20FFF799FF00BF80BD00BFF801002046
:100C0000885D000880B500AFFFF7DEFF00BF80BD44
:100C100098B500AF20213A4800F0AEFE3220FFF731
:100C20009FFF384B5B781B021AB2364B1B781BB206
:100C300013431AB2344B1A80324BDB781B021AB2C0
:100C4000304B9B781BB213431AB2304B1A802D4B9A
:100C50005B791B021AB22B4B1B791BB213431AB2DE
:100C60002B4B1A80284BB3F900301846FFF7CAFB0C
:100C700021A3D3E90023FFF72FFC03460C461846B7
:100C80002146FFF701FF0246224B1A601F4BB3F9C2
:100C900000301846FFF7B6FB17A3D3E90023FFF790
:100CA0001BFC03460C4618462146FFF7EDFE0246A4
:100CB000194B1A60164BB3F900301846FFF7A2FB28
:100CC0000DA3D3E90023FFF707FC03460C461846A3
:100CD0002146FFF7D9FE0246104B1A600C4BB3F9C0
:100CE000003019460E4803F06BF9C82000F0C8FB2D
:100CF00090E700BFAFF30080DE718A8EE4F27F3FA1
:100D00000008014018020020080200201202002002
:100D10001002002020020020140200200C020020FB
:100D2000A05D000880B483B000AF78607B681B686A
:100D300003F08003802B0CBF01230023DBB2184695
:100D40000C37BD4680BC704780B483B000AF78607C
:100D50000B46FB70FA787B685A6000BF0C37BD46C3
:100D600080BC704780B500AF00F028FB00F008F8A9
:100D700000F08EF900F0D6F900F0A0FA00BF80BDB7
:100D800080B590B000AF07F1180328220021184663
:100D900002F0BEFC3B1D00221A605A609A60DA60C5
:100DA0001A610123BB614FF48033FB6100233B6276
:100DB0000123BB6202237B634FF48033BB630023B8
:100DC000FB6307F11803184601F04AFD0346002BA8
:100DD00001D000F04DF80F237B600223BB6080231D
:100DE000FB6000233B6100237B613B1D0021184613
:100DF00001F09AFF0346002B01D000F039F800BF44
:100E00004037BD4680BD000080B586B000AFF860B9
:100E1000B9607A606FF070437B6100233B611BE037
:100E20007B695A1E7A61002B02D14FF0FF3318E024
:100E30000E48FFF777FF0346002BF1D03B69BA68F5
:100E400013441B7819460948FFF77EFF6FF0704383
:100E50007B613B6901333B613A697B689A42E7DB1E
:100E60007B6818461837BD4680BD00BF004400406F
:100E700080B400AF00BFBD4680BC704780B485B071
:100E800000AF154B9B69144A43F001039361124B69
:100E90009B6903F00103BB60BB680F4BDB690E4A23
:100EA00043F08053D3610C4BDB6903F080537B60CC
:100EB0007B680A4B5B68FB60FB6823F0E063FB60C8
:100EC000FB6843F00073FB60044AFB68536000BF9B
:100ED0001437BD4680BC704700100240000001403E
:100EE00080B400AF00BFBD4680BC704780B400AF87
:100EF000FEE780B400AFFEE780B400AFFEE780B449
:100F000000AFFEE780B400AF00BFBD4680BC7047B5
:100F100080B400AF00BFBD4680BC704780B400AF56
:100F200000BFBD4680BC704780B500AF00F08CFAB2
:100F300000BF80BD80B586B000AFF860B9607A6050
:100F400000237B610AE0AFF300800146BB685A1CB6
:100F5000BA60CAB21A707B6901337B617A697B68B7
:100F60009A42F0DB7B6818461837BD4680BD00000A
:100F700080B584B000AF7860114B1B68002B02D1A4
:100F80000F4B104A1A600E4B1B68FB600C4B1A6823
:100F90007B6813446A46934207D902F08FFB0246EE
:100FA0000C2313604FF0FF3306E0054B1A687B6893
:100FB0001344034A1360FB6818461037BD4680BDD2
:100FC000FC0100208002002080B483B000AF786074
:100FD0004FF0FF3318460C37BD4680BC704780B4D5
:100FE00083B000AF786039603B684FF400525A60BC
:100FF000002318460C37BD4680BC704780B483B0D0
:1010000000AF7860012318460C37BD4680BC70479E
:1010100080B485B000AFF860B9607A6000231846EC
:101020001437BD4680BC704780B400AF154B1B68B9
:10103000144A43F001031360124B5A681149124BD2
:1010400013404B600F4B1B680E4A23F0847323F44C
:10105000803313600B4B1B680A4A23F48023136010
:10106000084B5B68074A23F4FE035360054B4FF4BB
:101070001F029A60054B4FF000629A6000BFBD46A8
:1010800080BC7047001002400000FFF800ED00E057
:1010900080B588B000AF07F1100300221A605A60D3
:1010A0009A60DA601D4B9B691C4A43F020039361F0
:1010B0001A4B9B6903F02003FB60FB68174B9B698D
:1010C000164A43F004039361144B9B6903F0040335
:1010D000BB60BB68114B9B69104A43F008039361E6
:1010E0000E4B9B6903F008037B607B680022202184
:1010F0000B4800F029FC20233B6101237B61002386
:10110000BB610223FB6107F110031946044800F09C
:10111000BDFA00BF2037BD4680BD00BF00100240B1
:101120000008014080B500AF124B134A1A60114B02
:10113000124A5A600F4B00229A600E4B0022DA606E
:101140000C4B4FF480421A610A4B00225A61094B42
:1011500000229A61074B0022DA61064B00221A62D4
:10116000044800F01BFC0346002B01D0FFF780FE73
:1011700000BF80BD2402002000540040A086010072
:1011800080B58AB000AF786007F1180300221A60BA
:101190005A609A60DA607B681B681B4A93422FD1C1
:1011A0001A4BDB69194A43F40013D361174BDB690F
:1011B00003F400137B617B69144B9B69134A43F072
:1011C00008039361114B9B6903F008033B613B6982
:1011D000C023BB611223FB6103237B6207F1180369
:1011E00019460B4800F052FA084BDB69074A43F4F2
:1011F0000013D361054BDB6903F40013FB60FB684C
:1012000000BF2837BD4680BD00540040001002409A
:10121000000C014080B483B000AF78607B68DB686D
:1012200043F400527B68DA6000BF0C37BD4680BCD7
:10123000704780B483B000AF78607B681B6923F48B
:1012400090427B681A617B685B6923F02A027B68A5
:101250005A6100BF0C37BD4680BC704780B485B072
:1012600000AF7860084BDA6907497B681343CB61AC
:10127000054BDA697B681340FB60FB6800BF1437DD
:10128000BD4680BC704700BF0010024080B485B0EE
:1012900000AF7860084B9A6907497B6813438B61FC
:1012A000054B9A697B681340FB60FB6800BF1437ED
:1012B000BD4680BC704700BF0010024080B58CB0B6
:1012C00000AF07F1180300221A605A609A60DA60D2
:1012D0001A615A613B1D00221A605A609A60DA60F6
:1012E0001A614FF40030FFF7B9FF0420FFF7CEFF7B
:1012F00040F204437B600923BB600323FB600023AF
:101300003B613B1D1946154801F069FF40F6080393
:101310007B600423BB603B1D1946104801F05FFF52
:101320004FF4E133BB610023FB6100233B620023E8
:101330007B620C23BB620023FB6207F11803194692
:10134000074802F04FF90648FFF773FF0448FFF71C
:1013500061FF00BF3037BD4680BD00BF00080140BF
:1013600000440040002103E00B4B5B584350043124
:101370000A480B4B42189A42F6D30A4A02E000236D
:1013800042F8043B084B9A42F9D3FFF74DFE02F0B6
:101390009BF902F087F97047A06000080000002068
:1013A000DC010020DC01002080020020FEE780B587
:1013B00000AFFFF7D7FC00BF80BD000080B500AFD5
:1013C000084B1B68074A43F010031360032000F02A
:1013D00029F9002000F008F8FFF750FD0023184617
:1013E00080BD00BF0020024080B582B000AF7860B1
:1013F000124B1A68124B1B7819464FF47A73B3FBE1
:10140000F1F3B2FBF3F3184600F033F90346002B77
:1014100001D001230EE07B680F2B0AD800227968E7
:101420004FF0FF3000F009F9064A7B681360002393
:1014300000E0012318460837BD4680BD00000020AB
:10144000080000200400002080B400AF054B1B788A
:101450001A46054B1B681344034A136000BFBD4680
:1014600080BC7047080000207802002080B400AFE4
:10147000024B1B681846BD4680BC704778020020AE
:1014800080B584B000AF7860FFF7F0FFB8607B688C
:10149000FB60FB68B3F1FF3F05D0094B1B781A4690
:1014A000FB681344FB6000BFFFF7E0FF0246BB6828
:1014B000D31AFA689A42F7D800BF1037BD4680BDEC
:1014C0000800002080B485B000AF78607B6803F02E
:1014D0000703FB600C4BDB68BB60BA684FF6FF0389
:1014E0001340BB60FB681A02BB68134343F0BF6341
:1014F00043F40033BB60044ABB68D36000BF1437B9
:10150000BD4680BC704700BF00ED00E080B400AF76
:10151000044BDB681B0A03F007031846BD4680BC7A
:10152000704700BF00ED00E080B483B000AF034619
:101530003960FB7197F90730002B0BDA3B68DAB2A0
:101540000C49FB7903F00F03043B1201D2B20B44A8
:101550001A7609E03B68DAB2074997F907301201B9
:10156000D2B20B4483F8002300BF0C37BD4680BCC9
:10157000704700BF00ED00E000E100E080B489B0FA
:1015800000AFF860B9607A60FB6803F00703FB61A5
:10159000FB69C3F10703042B28BF0423BB61FB696C
:1015A0000433062B02D9FB69033B00E000237B6177
:1015B0004FF0FF32BB6902FA03F3DA43BB681A400B
:1015C0007B699A404FF0FF317B6901FA03F3D943FD
:1015D0007B680B40134318462437BD4680BC7047D8
:1015E00080B582B000AF78607B68013BB3F1807F4B
:1015F00001D301230FE00A4A7B68013B53600F21AE
:101600004FF0FF30FFF790FF054B00229A60044B2C
:1016100007221A60002318460837BD4680BD00BF68
:1016200010E000E080B582B000AF78607868FFF726
:1016300049FF00BF0837BD4680BD80B586B000AF0A
:101640000346B9607A60FB7300237B61FFF75EFF9E
:1016500078617A68B9687869FFF790FF024697F970
:101660000F3011461846FFF75FFF00BF1837BD4621
:1016700080BD80B582B000AF78607868FFF7B0FFBA
:10168000034618460837BD4680BD000080B48BB0C5
:1016900000AF786039600023FB610023BB61002349
:1016A0007B6100233B6200233B6100237B6227E1D7
:1016B00001227B6A02FA03F3FB613B681B68FA694B
:1016C0001340BB61BA69FB699A4240F016813B68DE
:1016D0005B68122B34D0122B0DD8022B2BD0022B8F
:1016E00004D8002B31D0012B1CD048E0032B43D071
:1016F000112B1BD043E0874A934226D0854A934260
:1017000006D8854A934220D0844A93421DD036E0C1
:10171000834A934219D0834A934216D0824A934215
:1017200013D02CE03B68DB683B6228E03B68DB6859
:1017300004333B6223E03B68DB6808333B621EE016
:101740003B68DB680C333B6219E03B689B68002B0D
:1017500002D104233B6212E03B689B68012B05D158
:1017600008233B627B68FA691A6108E008233B6240
:101770007B68FA695A6102E000233B6200BFBB69E3
:10178000FF2B01D87B6801E07B680433FB60BB69F9
:10179000FF2B02D87B6A9B0002E07B6A083B9B0020
:1017A0003B61FB681A680F213B6901FA03F3DB43D5
:1017B0001A40396A3B6901FA03F31A43FB681A605D
:1017C0003B685B6803F08053002B00F09680574B1A
:1017D0009B69564A43F001039361544B9B6903F0A4
:1017E0000103BB60BB68524A7B6A9B08023352F814
:1017F00023307B617B6A03F003039B000F2202FA14
:1018000003F3DB437A6913407B617B68494A934267
:1018100013D07B68484A93420DD07B68474A934275
:1018200007D07B68464A934201D1032306E0042394
:1018300004E0022302E0012300E000237A6A02F0C0
:101840000302920093407A6913437B6138497B6AB3
:101850009B0802337A6941F823203B685B6803F4F4
:101860008033002B06D0374B1A683649BB691343C7
:101870000B6006E0334B1A68BB69DB433149134008
:101880000B603B685B6803F40033002B06D02D4BE4
:101890005A682C49BB6913434B6006E0294B5A68D0
:1018A000BB69DB43274913404B603B685B6803F42B
:1018B0008013002B06D0234B9A682249BB6913433F
:1018C0008B6006E01F4B9A68BB69DB431D491340E0
:1018D0008B603B685B6803F40013002B06D0194B48
:1018E000DA681849BB691343CB6006E0154BDA6828
:1018F000BB69DB4313491340CB607B6A01337B62D6
:101900007B6A0F2B7FF6D4AE00BF2C37BD4680BC60
:10191000704700BF000021100000111000001210DD
:1019200000003110000032100000221000100240B0
:101930000000014000080140000C0140001001407F
:10194000001401400004014080B483B000AF78600F
:101950000B467B8013467B707B78002B03D07A8804
:101960007B681A6103E07B881A047B681A6100BFF8
:101970000C37BD4680BC704780B483B000AF786040
:101980000B467B807B68DA687B885A407B68DA602C
:1019900000BF0C37BD4680BC7047000080B584B0E6
:1019A00000AF78600023FB600023BB607B68002BE6
:1019B00001D10123E7E07B6893F83D30DBB2002BD7
:1019C00006D17B68002283F83C207868FFF7D8FBBB
:1019D0007B68242283F83D207B681B681A687B683B
:1019E0001B6822F001021A6001F016FBB8607B68E8
:1019F0005B68674A934207D8BB68664A934294BFC4
:101A000001230023DBB206E0BB68634A934294BF24
:101A100001230023DBB2002B01D00123B3E0BB681C
:101A20005E4AA2FB03239B0CFB607B681B68FA6881
:101A30005A607B685B68564A934202D8FB68013360
:101A400009E0FB684FF4967202FB03F3544AA2FBD1
:101A500003239B0901337A68126813627B685B6811
:101A60004B4A93420DD8BB685A1E7B685B685B008B
:101A7000B2FBF3F30133C3F30B03042B38BF04238E
:101A80004FE07B689B68002B11D1BB68591E7B68B7
:101A90005A6813465B001344B1FBF3F30133C3F3FD
:101AA0000B03002B0CBF01230023DBB212E0BB6849
:101AB000591E7B685A6813469B0013449A001344CE
:101AC000B1FBF3F30133C3F30B03002B0CBF012372
:101AD0000023DBB2002B01D0012322E07B689B684E
:101AE000002B0ED1BB68591E7B685A6813465B00F9
:101AF0001344B1FBF3F30133C3F30B0343F400438B
:101B00000FE0BB68591E7B685A6813469B0013445C
:101B10009A001344B1FBF3F30133C3F30B0343F413
:101B200040437A681268D3617B68D9697B681A6A16
:101B30007B681B680A431A607B6819697B68DA68EE
:101B40007B681B680A439A607B6859697B689A695D
:101B50007B681B680A43DA607B681B681A687B68CD
:101B60001B6842F001021A607B6800221A647B68DD
:101B7000202283F83D207B6800221A637B680022C4
:101B800083F83E20002318461037BD4680BD00BFB5
:101B9000A08601007F841E00FF083D0083DE1B43FA
:101BA000D34D621080B588B002AFF8607A601A46F3
:101BB0000B467B8113463B8100237B61FFF756FC7C
:101BC0007861FB6893F83D30DBB2202B40F0EE806B
:101BD0007B690093192301227749F86800F096FC8D
:101BE0000346002B01D00223E1E0FB6893F83C3070
:101BF000012B01D10223DAE0FB68012283F83C20AB
:101C0000FB681B681B6803F00103012B07D0FB680E
:101C10001B681A68FB681B6842F001021A60FB68C7
:101C20001B681A68FB681B6822F400621A60FB6874
:101C3000212283F83D20FB68102283F83E20FB68B8
:101C400000221A64FB687A685A62FB683A895A85EE
:101C5000FB685A4ADA62FB685B8D9AB2FB681A85A8
:101C600079897B693A6AF86800F0ECFA0346002B40
:101C70000FD0FB681B6C042B05D1FB68002283F896
:101C80003C20012393E0FB68002283F83C200323DF
:101C90008DE000233B61FB681B685B693B61FB686F
:101CA0001B689B693B613B6966E07A69396AF86841
:101CB00000F0EBFC0346002B0FD0FB681B6C042BE1
:101CC00009D1FB681B681A68FB681B6842F4007244
:101CD0001A6001236BE0032369E0FB685B6A591C0F
:101CE000FA6851621A78FB681B681A61FB685B8DA1
:101CF0009BB2013B9AB2FB685A85FB681B8D013B86
:101D00009AB2FB681A85FB681B685B6903F00403E1
:101D1000042B19D1FB681B8D002B15D0FB685B6A67
:101D2000591CFA6851621A78FB681B681A61FB68D3
:101D30005B8D9BB2013B9AB2FB685A85FB681B8D99
:101D4000013B9AB2FB681A857A69396AF86800F033
:101D5000D9FC0346002B0FD0FB681B6C042B09D168
:101D6000FB681B681A68FB681B6842F400721A6003
:101D700001231CE003231AE0FB681B8D002B94D188
:101D8000FB681B681A68FB681B6842F400721A60E3
:101D9000FB68202283F83D20FB68002283F83E2068
:101DA000FB68002283F83C20002300E00223184651
:101DB0001837BD4680BD00BF020010000000FFFFC5
:101DC00080B58CB002AFF860084611461A4603464B
:101DD0007B810B463B811346FB8000237B62FFF730
:101DE00045FB7862FB6893F83D30DBB2202B40F076
:101DF00022827B6A0093192301228A49F86800F045
:101E000085FB0346002B01D0022315E2FB6893F803
:101E10003C30012B01D102230EE2FB68012283F842
:101E20003C20FB681B681B6803F00103012B07D0F3
:101E3000FB681B681A68FB681B6842F001021A60A5
:101E4000FB681B681A68FB681B6822F400621A6052
:101E5000FB68222283F83D20FB68402283F83E2065
:101E6000FB6800221A64FB683A6B5A62FB68BA8E00
:101E70005A85FB686C4ADA62FB685B8D9AB2FB6834
:101E80001A85F8883A8979897B6A0193BB6B00933C
:101E90000346F86800F058FA0346002B0FD0FB68A1
:101EA0001B6C042B05D1FB68002283F83C20012326
:101EB000C2E1FB68002283F83C200323BCE1FB68FD
:101EC0001B8D002B13D100233B62FB681B685B69F1
:101ED0003B62FB681B689B693B623B6AFB681B6853
:101EE0001A68FB681B6842F400721A6090E1FB6894
:101EF0001B8D012B1DD1FB681B681A68FB681B68D2
:101F000022F480621A6072B60023FB61FB681B68D2
:101F10005B69FB61FB681B689B69FB61FB69FB6894
:101F20001B681A68FB681B6842F400721A6062B68C
:101F30006EE1FB681B8D022B1DD1FB681B681A68C4
:101F4000FB681B6842F400621A6072B60023BB6132
:101F5000FB681B685B69BB61FB681B689B69BB61B5
:101F6000BB69FB681B681A68FB681B6822F4806207
:101F70001A6062B64CE1FB681B681A68FB681B6854
:101F800042F480621A6000237B61FB681B685B6916
:101F90007B61FB681B689B697B617B6938E1FB683F
:101FA0001B8D032B00F2EF80FB681B8D012B27D1CB
:101FB0007A6AB96BF86800F0E2FB0346002B07D0A1
:101FC000FB681B6C202B01D1032335E1012333E196
:101FD000FB681B681869FB685B6A591CFA685162E8
:101FE000C2B21A70FB681B8D013B9AB2FB681A855E
:101FF000FB685B8D9BB2013B9AB2FB685A8507E197
:10200000FB681B8D022B4CD17B6A0093BB6B0022BB
:102010000649F86800F07AFA0346002B08D003233B
:102020000AE100BF020010000000FFFF04000100F1
:1020300072B6FB681B681A68FB681B6842F4007282
:102040001A60FB681B681869FB685B6A591CFA68B0
:102050005162C2B21A70FB681B8D013B9AB2FB68D9
:102060001A85FB685B8D9BB2013B9AB2FB685A856F
:1020700062B6FB681B681869FB685B6A591CFA68E2
:102080005162C2B21A70FB681B8D013B9AB2FB68A9
:102090001A85FB685B8D9BB2013B9AB2FB685A853F
:1020A000B6E07B6A0093BB6B00226549F86800F0DC
:1020B0002DFA0346002B01D00323BDE0FB681B680B
:1020C0001A68FB681B6822F480621A6072B6FB68AB
:1020D0001B681869FB685B6A591CFA685162C2B2D6
:1020E0001A70FB681B8D013B9AB2FB681A85FB686E
:1020F0005B8D9BB2013B9AB2FB685A857B6A009369
:10210000BB6B00224E49F86800F000FA0346002B32
:1021100001D0032390E0FB681B681A68FB681B680A
:1021200042F400721A60FB681B681869FB685B6AFE
:10213000591CFA685162C2B21A70FB681B8D013BD0
:102140009AB2FB681A85FB685B8D9BB2013B9AB221
:10215000FB685A8562B6FB681B681869FB685B6A96
:10216000591CFA685162C2B21A70FB681B8D013BA0
:102170009AB2FB681A85FB685B8D9BB2013B9AB2F1
:10218000FB685A8544E07A6AB96BF86800F0F7FAA0
:102190000346002B07D0FB681B6C202B01D10323C7
:1021A0004AE0012348E0FB681B681869FB685B6A2A
:1021B000591CFA685162C2B21A70FB681B8D013B50
:1021C0009AB2FB681A85FB685B8D9BB2013B9AB2A1
:1021D000FB685A85FB681B685B6903F00403042BEA
:1021E00016D1FB681B681869FB685B6A591CFA68A2
:1021F0005162C2B21A70FB681B8D013B9AB2FB6838
:102200001A85FB685B8D9BB2013B9AB2FB685A85CD
:10221000FB681B8D002B7FF4C2AEFB68202283F885
:102220003D20FB68002283F83E20FB68002283F8F3
:102230003C20002300E0022318462837BD4680BD1D
:102240000400010080B588B002AFF8607A603B609E
:102250000B467B81FB68DB6A7B617B69042B06D0C4
:102260007B69012B03D07B6913F5803F08D1FB68A4
:102270001B681A68FB681B6842F480721A600BE0E6
:10228000FB681B6B122B07D1FB681B681A68FB6885
:102290001B6842F480721A603B6800937B680022DE
:1022A0004FF00111F86800F031F90346002B01D01E
:1022B000032341E0FB681B69B3F5804F08D17B899C
:1022C000DBB21A46FB681B6802F0FE021A6121E0CD
:1022D0007B89DB11DBB203F00603DBB263F00F0393
:1022E000DAB2FB681B681A613B687A681449F868BF
:1022F00000F05DF90346002B07D0FB681B6C042B34
:1023000001D1012318E0032316E07B89DAB2FB68D0
:102310001B681A613B687A680A49F86800F047F957
:102320000346002B07D0FB681B6C042B01D1012353
:1023300002E0032300E0002318461837BD4680BDA5
:10234000080001000200010080B588B002AFF8600B
:10235000084611461A4603467B810B463B811346CD
:10236000FB80FB681B681A68FB681B6842F480628C
:102370001A60FB681B681A68FB681B6842F480726D
:102380001A607B6A00933B6A00224FF00111F868E3
:1023900000F0BCF80346002B01D00323B0E07B899A
:1023A000DBB21A46FB681B6802F0FE021A617B6A08
:1023B0003A6A5549F86800F0FAF80346002B07D04E
:1023C000FB681B6C042B01D1012399E0032397E0E8
:1023D00000237B61FB681B685B697B61FB681B6892
:1023E0009B697B617B697A6A396AF86800F04DF90C
:1023F0000346002B0FD0FB681B6C042B09D1FB6834
:102400001B681A68FB681B6842F400721A6001239B
:1024100076E0032374E0FB88012B05D13B89DAB217
:10242000FB681B681A6123E03B891B0A9BB2DAB286
:10243000FB681B681A617A6A396AF86800F025F946
:102440000346002B0FD0FB681B6C042B09D1FB68E3
:102450001B681A68FB681B6842F400721A6001234B
:102460004EE003234CE03B89DAB2FB681B681A613B
:102470007A6A396AF86800F008F90346002B0FD031
:10248000FB681B6C042B09D1FB681B681A68FB688E
:102490001B6842F400721A60012331E003232FE02D
:1024A000FB681B681A68FB681B6842F480721A603C
:1024B0007B6A00933B6A00224FF00111F86800F03C
:1024C00025F80346002B01D0032319E07B89DBB2FA
:1024D00043F00103DAB2FB681B681A617B6A3A6A4F
:1024E0000949F86800F063F80346002B07D0FB6841
:1024F0001B6C042B01D1012302E0032300E0002325
:1025000018461837BD4680BD0200010080B584B072
:1025100000AFF860B9603B601346FB711FE03B6899
:10252000B3F1FF3F1BD03B68002B07D0FEF79EFFA7
:102530000246BB69D31A3A689A4210D2FB6800225D
:102540001A63FB68202283F83D20FB68002283F891
:102550003E20FB68002283F83C20032323E0BB6875
:102560001B0CDBB2012B0DD1FB681B685B69DA43E6
:10257000BB6813409BB2002B0CBF01230023DBB2CE
:102580001A460CE0FB681B689B69DA43BB68134082
:102590009BB2002B0CBF01230023DBB21A46FB7950
:1025A0009A42BCD0002318461037BD4680BD80B586
:1025B00084B000AFF860B9607A603B6040E0FB68CF
:1025C0001B685B6903F48063B3F5806F1CD1FB6803
:1025D0001B681A68FB681B6842F400721A60FB688B
:1025E0001B686FF480625A61FB6804221A64FB68FE
:1025F00000221A63FB68202283F83D20FB6800223A
:1026000083F83C2001233CE07B68B3F1FF3F17D007
:102610007B68002B07D0FEF729FF02463B68D31AE0
:102620007A689A420CD2FB6800221A63FB68202267
:1026300083F83D20FB68002283F83C20032320E040
:10264000BB681B0CDBB2012B0CD1FB681B685B6900
:10265000DA43BB6813409BB2002B14BF0123002355
:10266000DBB20BE0FB681B689B69DA43BB68134075
:102670009BB2002B14BF01230023DBB2002B9ED1A1
:10268000002318461037BD4680BD80B584B000AF2A
:10269000F860B9607A6029E0F86800F0BAF803469B
:1026A000002B01D0012329E0BB68B3F1FF3F1DD00F
:1026B000BB68002B07D0FEF7D9FE02467B68D31A11
:1026C000BA689A4212D2FB681B6C43F02002FB6886
:1026D0001A64FB6800221A63FB68202283F83D20FD
:1026E000FB68002283F83C20032307E0FB681B689B
:1026F0005B6903F08003802BCED10023184610378E
:10270000BD4680BD80B584B000AFF860B9607A6026
:1027100029E0F86800F07DF80346002B01D0012382
:1027200029E0BB68B3F1FF3F1DD0BB68002B07D089
:10273000FEF79CFE02467B68D31ABA689A4212D210
:10274000FB681B6C43F02002FB681A64FB680022E4
:102750001A63FB68202283F83D20FB68002283F87F
:102760003C20032307E0FB681B685B6903F004035C
:10277000042BCED1002318461037BD4680BD80B54E
:1027800084B000AFF860B9607A6036E0FB681B681F
:102790005B6903F01003102B14D1FB681B686FF00A
:1027A00010025A61FB6800221A64FB6800221A6357
:1027B000FB68202283F83D20FB68002283F83C2040
:1027C000012322E0BB68002B07D0FEF74FFE024634
:1027D0007B68D31ABA689A420FD2FB681B6C43F02D
:1027E0002002FB681A64FB68202283F83D20FB6806
:1027F000002283F83C20032307E0FB681B685B6929
:1028000003F04003402BC1D1002318461037BD46CA
:1028100080BD80B483B000AF78607B681B685B6963
:1028200003F48063B3F5806F14D17B681B686FF489
:1028300080625A617B6804221A647B6800221A63F2
:102840007B68202283F83D207B68002283F83C20AF
:10285000012300E0002318460C37BD4680BC7047BA
:1028600080B586B000AF786000233B617B681B6851
:1028700003F00103002B00F08780924B5B6803F0AC
:102880000C03042B0CD08F4B5B6803F00C03082B5C
:1028900012D18C4B5B6803F48033B3F5803F0BD1CE
:1028A000884B1B6803F40033002B6CD07B685B689B
:1028B000002B68D101232DE27B685B68B3F5803F74
:1028C00006D1804B1B687F4A43F4803313602EE0AF
:1028D0007B685B68002B0CD17A4B1B68794A23F428
:1028E00080331360774B1B68764A23F48023136090
:1028F0001DE07B685B68B3F5A02F0CD1714B1B68A2
:10290000704A43F4802313606E4B1B686D4A43F496
:10291000803313600BE06B4B1B686A4A23F48033EF
:102920001360684B1B68674A23F4802313607B683D
:102930005B68002B13D0FEF799FD386108E0FEF7C5
:1029400095FD02463B69D31A642B01D90323E1E1CB
:102950005C4B1B6803F40033002BF0D014E0FEF74F
:1029600085FD386108E0FEF781FD02463B69D31A18
:10297000642B01D90323CDE1524B1B6803F40033D0
:10298000002BF0D100E000BF7B681B6803F002035E
:10299000002B63D04B4B5B6803F00C03002B0BD078
:1029A000484B5B6803F00C03082B1CD1454B5B685C
:1029B00003F48033002B16D1424B1B6803F0020353
:1029C000002B05D07B681B69012B01D00123A1E1FD
:1029D0003C4B1B6823F0F8027B685B69DB003949DC
:1029E00013430B603AE07B681B69002B20D0364B09
:1029F00001221A60FEF73AFD386108E0FEF736FD65
:102A000002463B69D31A022B01D9032382E12D4BE5
:102A10001B6803F00203002BF0D02A4B1B6823F045
:102A2000F8027B685B69DB00264913430B6015E005
:102A3000254B00221A60FEF719FD386108E0FEF709
:102A400015FD02463B69D31A022B01D9032361E12C
:102A50001C4B1B6803F00203002BF0D17B681B6842
:102A600003F00803002B39D07B689B69002B19D039
:102A7000164B01221A60FEF7F9FC386108E0FEF7F8
:102A8000F5FC02463B69D31A022B01D9032341E12D
:102A90000C4B5B6A03F00203002BF0D0012000F026
:102AA000CFFA1BE0094B00221A60FEF7DFFC386109
:102AB0000EE0FEF7DBFC02463B69D31A022B07D976
:102AC000032327E1001002400000424280044242FA
:102AD000924B5B6A03F00203002BEAD17B681B6810
:102AE00003F00403002B00F0A6800023FB758B4B42
:102AF000DB6903F08053002B0DD1884BDB69874ADB
:102B000043F08053D361854BDB6903F08053FB6056
:102B1000FB680123FB75824B1B6803F48073002B59
:102B200018D17F4B1B687E4A43F480731360FEF715
:102B30009DFC386108E0FEF799FC02463B69D31A18
:102B4000642B01D90323E5E0754B1B6803F4807304
:102B5000002BF0D07B68DB68012B06D16F4B1B6A22
:102B60006E4A43F0010313622DE07B68DB68002BA3
:102B70000CD16A4B1B6A694A23F001031362674B4D
:102B80001B6A664A23F0040313621CE07B68DB685F
:102B9000052B0CD1614B1B6A604A43F0040313629E
:102BA0005E4B1B6A5D4A43F0010313620BE05B4B13
:102BB0001B6A5A4A23F001031362584B1B6A574A97
:102BC00023F0040313627B68DB68002B15D0FEF74B
:102BD0004DFC38610AE0FEF749FC02463B69D31A16
:102BE00041F28832934201D9032393E04B4B1B6A95
:102BF00003F00203002BEED014E0FEF737FC38613F
:102C00000AE0FEF733FC02463B69D31A41F28832F0
:102C1000934201D903237DE0404B1B6A03F002037A
:102C2000002BEED1FB7D012B05D13C4BDB693B4AF0
:102C300023F08053D3617B68DB69002B69D0374B6D
:102C40005B6803F00C03082B61D07B68DB69022B07
:102C500046D1344B00221A60FEF708FC386108E0C8
:102C6000FEF704FC02463B69D31A022B01D9032369
:102C700050E02A4B1B6803F00073002BF0D17B68F7
:102C80001B6AB3F5803F08D1244B5B6823F4003204
:102C90007B689B68214913434B60204B5B6823F49E
:102CA00074127B68196A7B685B6A0B431B49134388
:102CB0004B601C4B01221A60FEF7D8FB386108E01C
:102CC000FEF7D4FB02463B69D31A022B01D903233A
:102CD00020E0124B1B6803F00073002BF0D018E0CB
:102CE000104B00221A60FEF7C1FB386108E0FEF7C6
:102CF000BDFB02463B69D31A022B01D9032309E02D
:102D0000064B1B6803F00073002BF0D101E0012398
:102D100000E0002318461837BD4680BD0010024071
:102D2000007000406000424280B584B000AF78601F
:102D300039600023FB607E4B1B6803F007033A6891
:102D40009A4210D97A4B1B6823F0070278493B68F6
:102D500013430B60764B1B6803F007033A689A42F3
:102D600001D00123E0E07B681B6803F00203002B25
:102D700020D07B681B6803F00403002B05D06D4B4B
:102D80005B686C4A43F4E06353607B681B6803F044
:102D90000803002B05D0674B5B68664A43F4605319
:102DA0005360644B5B6823F0F0027B689B68614969
:102DB00013434B607B681B6803F00103002B6AD050
:102DC0007B685B68012B07D15A4B1B6803F4003307
:102DD000002B15D10123A7E07B685B68022B07D18C
:102DE000544B1B6803F00073002B09D101239BE0B7
:102DF000504B1B6803F00203002B01D1012393E029
:102E00004C4B5B6823F003027B685B6849491343C2
:102E10004B60FEF72BFBF8607B685B68012B12D1DF
:102E20000AE0FEF723FB0246FB68D31A41F2883220
:102E3000934201D9032377E03E4B5B6803F00C0318
:102E4000042BEED127E07B685B68022B1DD10AE0E2
:102E5000FEF70CFB0246FB68D31A41F2883293421C
:102E600001D9032360E0334B5B6803F00C03082BAC
:102E7000EED110E0FEF7FAFA0246FB68D31A41F2EF
:102E80008832934201D903234EE02A4B5B6803F05A
:102E90000C03002BEED1264B1B6803F007033A68A6
:102EA0009A4210D2224B1B6823F0070220493B684C
:102EB00013430B601E4B1B6803F007033A689A42EA
:102EC00001D0012330E07B681B6803F00403002B72
:102ED00008D0184B5B6823F4E0627B68DB68154917
:102EE00013434B607B681B6803F00803002B09D079
:102EF000104B5B6823F460527B681B69DB000D4953
:102F000013434B6000F01CF801460A4B5B681B0939
:102F100003F00F03084AD35C21FA03F3074A136056
:102F20000020FEF761FA002318461037BD4680BD29
:102F30000020024000100240C05D00080000002098
:102F400090B48AB000AF2A4B3C1D0FCB84E80F0031
:102F5000284B1B883B800023FB610023BB610023BF
:102F60007B6200237B6100233B62234B5B68FB6138
:102F7000FB6903F00C03042B02D0082B03D02DE0D7
:102F80001E4B3B622DE0FB699B0C03F00F0307F126
:102F90002802134413F8243C7B61FB6903F480335B
:102FA000002B13D0144B5B685B0C03F0010307F19B
:102FB0002802134413F8283CBB617B690F4A02FBCB
:102FC00003F2BB69B2FBF3F37B6204E07B690C4A5A
:102FD00002FB03F37B627B6A3B6202E0074B3B62CE
:102FE00000BF3B6A18462837BD4690BC704700BFFB
:102FF000AC5D0008BC5D00080010024000127A00C1
:1030000000093D0080B400AF024B1B681846BD4666
:1030100080BC70470000002080B500AFFFF7F2FFD2
:103020000146054B5B681B0A03F00703034AD35CA8
:1030300021FA03F3184680BD00100240D05D00085D
:1030400080B485B000AF78600A4B1B680A4AA2FBC7
:1030500003235B0A7A6802FB03F3FB6000BFFB6893
:103060005A1EFA60002BF9D100BF1437BD4680BC50
:10307000704700BF00000020D34D621090B488B0AC
:1030800000AFF860B9607A60FB681A46BB681B0E37
:1030900013441C462268BB687B617B6993FAA3F3E7
:1030A0003B613B69B3FA83F39B000F2101FA03F301
:1030B000DB431A40BB68FB61FB6993FAA3F3BB6176
:1030C000BB69B3FA83F39B00796801FA03F31343F6
:1030D000236000BF2037BD4690BC704790B488B0D5
:1030E00000AFF860B9607A60FB681A46BB681B0ED7
:1030F00013441C462268BB687B617B6993FAA3F387
:103100003B613B69B3FA83F39B00032101FA03F3AC
:10311000DB431A40BB68FB61FB6993FAA3F3BB6115
:10312000BB69B3FA83F39B00796801FA03F3134395
:10313000236000BF2037BD4690BC704790B488B074
:1031400000AFF860B9607A60FB681A46BB681B0E76
:1031500013441C462268BB687B617B6993FAA3F326
:103160003B613B69B3FA83F39B00042101FA03F34B
:10317000DB431A40BB68FB61FB6993FAA3F3BB61B5
:10318000BB69B3FA83F39B00796801FA03F3134335
:10319000236000BF2037BD4690BC704780B487B025
:1031A00000AFF860B9607A60FB68DA68BB681B0A38
:1031B000DB431A40BB681B0A7B617B6993FAA3F36C
:1031C0003B613B69B3FA83F3796801FA03F31A436D
:1031D000FB68DA6000BF1C37BD4680BC704780B515
:1031E00088B000AF786039603B681B681B021B0C1D
:1031F0007B617B693B613B6993FAA3F3FB60FB68EE
:10320000B3FA83F3FB6140E00122FB699A407B69DA
:103210001340002B36D0FB69072B06D840F2011271
:10322000FB6902FA03F3BB6108E0FB69083B4FF05E
:10323000011202FA03F343F08063BB613B685B68F1
:103240001A46B9697868FFF719FF3B681B691A4687
:10325000B9697868FFF7A2FF3B685B68012B03D070
:103260003B685B68092B0DD13B689B681A46B969BE
:103270007868FFF733FF3B68DB681A46B9697868FE
:10328000FFF75CFFFB690133FB617A69FB6922FA96
:1032900003F3002BB8D1012318462037BD4680BD6B
:1032A00080B400AF034B5B6803F00C031846BD46C7
:1032B00080BC70470010024080B400AF034B5B68D5
:1032C00003F0F0031846BD4680BC70470010024072
:1032D00080B400AF034B5B6803F4E0631846BD465F
:1032E00080BC70470010024080B400AF034B5B68A5
:1032F00003F460531846BD4680BC7047001002407E
:1033000080B400AF034B5B6803F480331846BD46BE
:1033100080BC70470010024080B400AF034B5B6874
:1033200003F470131846BD4680BC7047001002407D
:1033300080B400AF044B5B685B0C03F001031846DC
:10334000BD4680BC704700BF0010024080B582B00F
:1033500000AF786000F020F802467B681A607B6856
:103360001B68184600F03AF802467B685A607B6892
:103370005B68184600F048F802467B689A607B68F4
:103380005B68184600F054F802467B68DA6000BFBC
:103390000837BD4680BD000080B582B000AF002375
:1033A0007B60FFF77DFF0346042B06D0082B07D078
:1033B000002B09D1084B7B6009E0074B7B6006E0DE
:1033C00000F04AF8786002E0034B7B6000BF7B6846
:1033D00018460837BD4680BD00127A0080B582B01D
:1033E00000AF7860FFF768FF03461B0903F00F0387
:1033F000044AD35C1A467B68D34018460837BD465A
:1034000080BD00BFC05D000880B582B000AF7860AD
:10341000FFF75EFF03461B0A044AD35C1A467B682B
:10342000D34018460837BD4680BD00BFD05D0008B8
:1034300080B582B000AF7860FFF756FF0346DB0A25
:10344000044AD35C1A467B68D34018460837BD4609
:1034500080BD00BFD05D000880B582B000AF002302
:103460007B6000233B60FFF74BFF38603B68002B1D
:1034700003D0B3F5803F03D00BE00D4B7B600BE036
:10348000FFF756FF034601330A4AB2FBF3F37B60B2
:1034900002E0074B7B6000BFFFF73EFF03469B0C3B
:1034A00002337A6802FB03F318460837BD4680BD35
:1034B00000093D0000127A0080B483B000AF78604C
:1034C0007B68DB6803F40053B3F5005F0CBF012396
:1034D0000023DBB218460C37BD4680BC704780B471
:1034E00083B000AF786039607B681B6923F4405279
:1034F0003B681A437B681A6100BF0C37BD4680BC2D
:10350000704780B483B000AF786039607B685B69D6
:1035100023F440723B681A437B685A6100BF0C3742
:10352000BD4680BC7047000080B485B000AFF86035
:10353000B9607A60BA6813469B0013449A001A4433
:103540007B689B00B2FBF3F3254AA2FB03235B09D4
:103550009BB21B0199B2BA6813469B0013449A00B0
:103560001A447B689B00B2FBF3F21D4BA3FB0203E2
:103570005B09642000FB03F3D31A1B013233184AA2
:10358000A2FB03235B099BB203F0F0039BB20B4445
:1035900099B2BA6813469B0013449A001A447B6898
:1035A0009B00B2FBF3F20E4BA3FB02035B0964200A
:1035B00000FB03F3D31A1B013233094AA2FB032396
:1035C0005B099BB203F00F039BB20B449BB21A46FC
:1035D000FB689A6000BF1437BD4680BC704700BFCF
:1035E0001F85EB5180B588B000AF7860396000234B
:1035F000FB770023BB617868FFF75EFF0346002B73
:1036000045D17B68DB6823F4B05323F00C033A68A0
:1036100051683A68D26811433A6812690A431A43FA
:103620007B68DA603B689B6819467868FFF757FF4C
:103630003B685B6919467868FFF763FF07F1080389
:103640001846FFF783FE7B68134A934202D17B69D9
:10365000BB610CE07B68114A934202D13B69BB61BC
:1036600005E07B680E4A934201D13B69BB61BB69AF
:10367000002B0CD03B681B68002B08D00123FB7784
:103680003B681B681A46B9697868FFF74DFFFB7FF6
:1036900018462037BD4680BD003801400044004038
:1036A0000048004080B500AFFDF781FEFDF7AAFAA3
:1036B000FDF7AEFA0023184680BD0000014B1868E4
:1036C000704700BF0C00002070B500250C4E0D4C5B
:1036D000A41BA410A54209D102F048FB00250A4E04
:1036E0000A4CA41BA410A54205D170BD56F8253084
:1036F00098470135EEE756F8253098470135F2E74F
:103700009860000898600008986000089C600008B5
:1037100003460244934200D1704703F8011BF9E7C6
:10372000002B2DE9F0471E46BBBF03F100431E46A8
:1037300000232D2388B0149FDDE9121A27F02007FB
:10374000462F1446109D0B7004D0452F00D1013533
:10375000022300E0032307AA049206AACDE902A2ED
:10376000CDE900352246334600F0D2FC472F804693
:1037700002D1119BDB0726D5462F08EB050911D195
:1037800098F80030302B0AD1002200232046314621
:10379000FDF70AF918B9C5F10105CAF80050DAF8C1
:1037A000003099440022002320463146FDF7FCF802
:1037B00038B93022079B4B4505D2591C07911A7026
:1037C000F8E7CDF81C904046079B159AA3EB080339
:1037D000136008B0BDE8F087F7B50029B4BF2D230A
:1037E0002B230446B8BF4942092904F8022B437031
:1037F00021DD0DF107031F460A2691FBF6F506FBB6
:103800001511092D01F1300103F8011C03F1FF32FC
:10381000294609DC3031023B02F8011CBB4222463A
:1038200004D3101A03B0F0BD1346E6E713F8012BDA
:1038300004F8012BF2E7302319448370021DC17094
:10384000EFE700002DE9F04F91B00C461A9F934628
:103850001E46054601F0DAFA036818460993FCF79C
:1038600077FC00230E933B680A90073323F007038D
:1038700003F1080294F81880D4F800A03A60D3E964
:103880000023C4E91223D4E9127929F000430B93F1
:103890004FF0FF32A64B38460B99FDF7B7F868BBDF
:1038A0004FF0FF32A24B38460B99FDF791F828BB39
:1038B0000022002338464946FDF780F810B12D2339
:1038C00084F843309B4F9C4BB8F1470F98BF1F467D
:1038D00003234FF0000923612AF0040323600096BC
:1038E0005B460FAA2146284600F0E2F9013040F07D
:1038F00090804FF0FF3011B0BDE8F08F3A464B4654
:1039000038464946FDF782F810B18C4F8C4BDBE707
:1039100063684AF48062591C0DA80EA940D10623A1
:1039200063604FF0000C0DF13303CDE901236368B0
:103930002260CDE9030800933A464B46CDE9051CC9
:103940002846FFF7EDFE08F0DF03472B074609D1B5
:103950000D9BD81C02DB6268934247DDA8F1020888
:103960005FFA88F8B8F1650F0D9924D801394246FD
:1039700004F150000D91FFF72FFF0E9A81461318A6
:10398000012A236102DC2268D10701D501332361BA
:103990009DF83330002BA2D02D2384F843309EE7CE
:1039A000B8F1670F00F06E81B8F1470FB9D1002B65
:1039B000B7D10123B4E7B8F1660F19D100296368C4
:1039C0000CDD216113B92268D20702D501330B4403
:1039D00023610D9B4FF00009A365D9E713B9226855
:1039E000D00701D50233F3E70123F1E74FF0670871
:1039F000DDE90D32934205DB22682361D107E8D56A
:103A00000133E5E7002BCCBF0123C3F102031344CC
:103A1000DEE723685A0507D423693A465946284603
:103A2000B047013029D164E7B8F1650F40F2D78083
:103A3000D4E9120100220023FCF7B6FF88B301236A
:103A4000404A59462846B04701303FF452AFDDE9BD
:103A50000D239A4202DB2368D8070ED5DDE909233E
:103A600059462846B04701303FF443AF002704F1E0
:103A70001A080E9B013BBB4209DC23689F0700F13B
:103A8000FD80E0680F9B9842B8BF184633E70123DA
:103A9000424659462846B04701303FF42AAF013725
:103AA000E7E70D9B002B2BDC0123264A59462846CD
:103AB000B04701303FF41DAF0D9B23B90E9B13B9E6
:103AC0002368D907D9D5DDE9092359462846B047E7
:103AD00001303FF40EAF4FF0000804F11A090D9BBE
:103AE0005B42434501DC0E9B97E701234A4659465A
:103AF0002846B04701303FF4FCAE08F10108EEE77C
:103B00000E9AA36D9A42A8BF1A46002A904607DD76
:103B1000134659463A462846B04701303FF4E9AECD
:103B200004F11A034FF0000A28EAE8780B9315E035
:103B3000FFFFEF7FE05D0008DC5D0008E85D000846
:103B4000E45D0008EC5D000801230B9A5946284605
:103B5000B04701303FF4CDAE0AF1010AD4F85890D5
:103B6000A9EB08035345EFDCDDE90D239A424F44EE
:103B700014DB2368DA0711D40E9B0D99A3EB09021D
:103B8000A3EB01099145A8BF9146B9F1000F0DDCE7
:103B9000002729EAE97904F11A0818E0DDE9092388
:103BA00059462846B0470130E6D1A2E64B463A4690
:103BB00059462846B0470130EAD19AE601234246E9
:103BC00059462846B04701303FF493AE0137DDE94E
:103BD0000D239B1AA3EB0903BB42EFDC4DE70E9AC2
:103BE000012A01DCDB0738D501233A46594628462D
:103BF000B04701303FF47DAEDDE909235946284640
:103C0000B047013007F101073FF473AED4E9120168
:103C10000E9B002203F1FF380023FCF7C5FEC0B95C
:103C200043463A4659462846B04701300DD160E632
:103C30000123424659462846B04701303FF459AE69
:103C400001370E9B013BBB42F2DC4B4604F15002B4
:103C5000E4E6002704F11A08F3E70123E1E7012372
:103C6000424659462846B04701303FF442AE01373C
:103C7000E3680F9A9B1ABB42F1DC02E7002704F1CC
:103C80001908F5E7002B3FF494AE4FF0000CCDE996
:103C9000051C0DF133012260CDE90308CDE90121B6
:103CA00000933A464B462846FFF73AFD07464FE653
:103CB0002DE9F04791461F468A680B6906469342F4
:103CC000B8BF1346C9F8003091F843200C46DDF820
:103CD000208012B10133C9F800302368990642BF31
:103CE000D9F800300233C9F80030256815F0060510
:103CF00007D104F1190AE368D9F800209B1AAB42F6
:103D000029DC94F843302268003318BF012392065F
:103D10002ED404F1430239463046C047013021D049
:103D20002368E56803F00603042B18BF0025D9F8C3
:103D300000204FF0000908BFAD1AA368226908BF30
:103D400025EAE5759342C4BF9B1AED181A344D4518
:103D50001AD1002008E00123524639463046C047B8
:103D6000013003D14FF0FF30BDE8F0870135C2E7E5
:103D70003020E11881F843005A1C94F84510224481
:103D8000023382F84310C4E7012322463946304605
:103D9000C0470130E6D009F10109D8E72DE9F04329
:103DA00001F1430C0C46097E85B06E291746064684
:103DB00098460C9A00F0B38022D8632936D00AD8EE
:103DC000002900F0B980582900F0838004F14205F1
:103DD00084F8421032E0642901D06929F6D12068C4
:103DE0001368050603F104012AD51B681160002B36
:103DF00003DA2D225B4284F843206F480A2239E01F
:103E0000732900F09D8008D86F2920D07029DDD15A
:103E1000236843F02003236003E0752917D0782935
:103E2000D4D17823654884F8453055E0136804F10F
:103E30004205191D1B68116084F8423001238CE093
:103E40001B6810F0400F116018BF1BB2CFE713685A
:103E50002568181D1060280601D51B6802E0680659
:103E6000FBD51B886F2914BF0A2208225248002163
:103E700084F843106568002DA560C0F29580216824
:103E800021F004012160002B3DD1002D40F08E80F7
:103E90006546082A0BD12368DB0708D523696268C9
:103EA0009A42DEBF302305F8013C05F1FF35ACEB4B
:103EB00005032361CDF800803B4603AA2146304626
:103EC000FFF7F6FE01304DD14FF0FF3005B0BDE8F1
:103ED000F083394884F84510136821681D1D1B685C
:103EE00015600A060BD5CA0744BF41F020012160C6
:103EF0001BB9226822F0200222601022B7E74D068B
:103F000048BF9BB2EFE76546B3FBF2F102FB11330A
:103F1000C35C05F8013D0B460029F5D1B9E71368EC
:103F20002568181D6169106028061B6801D5196095
:103F300002E06A06FBD51980002365462361B9E7D4
:103F40001368191D11601D6862680021284600F081
:103F500073FF08B1401B606063682361002384F82D
:103F60004330A7E723692A4639463046C047013027
:103F7000AAD023689B0713D4E068039B9842B8BF7C
:103F80001846A3E701234A4639463046C047013068
:103F90009AD00135E368039A9B1AAB42F2DCEBE757
:103FA000002504F11909F5E7002BACD1037804F1E1
:103FB000420584F842306CE7EE5D0008FF5D0008C2
:103FC0000FB40A4B13B51C6824B1A36913B920467A
:103FD00000F092FE05AB049AA1682046019301F01F
:103FE000FDFA02B0BDE8104004B070470C0000209C
:103FF0002DE9F74F03690C698046A342C0F2848023
:10400000013C01F1140700F1140657F8245056F84A
:1040100024000135B0FBF5F54FEA840C06EB0C03E8
:1040200007EB0C0901939DB34FF0000A3846B646E2
:10403000D34650F8042B93B205FB03A3120C4FEAAE
:10404000134A05FB02A29BB2ABEB0303DEF800B000
:104050004FEA124A1FFA8BFB5B441FFA82FBDEF821
:1040600000208145CBEB124202EB23429BB243EA94
:1040700002434FEA224B4EF8043BDAD256F80C309A
:1040800033B9019B043B9E421A4631D3C8F8104015
:10409000404601F0FFF8002826DB30464FF0000CC8
:1040A000013557F8041BD0F800E08BB2ACEB0303EA
:1040B0001FFA8EF213440A0CC2EB1E4202EB23429B
:1040C0009BB243EA0243B9454FEA224C40F8043B15
:1040D000E7D256F8242006EB84032AB9043B9E421B
:1040E0001A460BD3C8F81040284603B0BDE8F08F3D
:1040F0001268043B002AC9D1013CC4E71268043BA2
:10410000002AEFD1013CEAE70020EEE700000000C2
:104110002DE9F04F16461F46456A95B00446DDF876
:104120008480CDE902673DB9102000F07DFE606219
:10413000C0E901550560C560636A196851B15A68E4
:10414000012393404A608B60204600F0C2FE0022AB
:10415000636A1A603B1EAFBF0023012223F00043B5
:104160000393ACBFC8F80030C8F80020AE4BDDF8B0
:104170000C8033EA08031BD142F20F73209A1360BC
:10418000029B23B9C8F31300002800F04585229B49
:1041900053B9A64B21E0A64B06930833229A13602D
:1041A000069815B0BDE8F08FA04B06930333F5E7F2
:1041B000DDE902670022002330463946FCF7F4FBB4
:1041C000824660B10123209A1360229B002B00F0ED
:1041D0002085984B229A1360013B0693E0E712ABCF
:1041E000019313AB009332463B46204601F0CAF8D8
:1041F000C8F30A558346002D7DD0B046C7F313039C
:1042000043F07F5949F44019A5F2FF35CDF840A09D
:104210000022894B40464946FBF7A6FF7CA3D3E921
:104220000023FCF759F97CA3D3E90023FBF79EFF99
:10423000064628460F46FCF7E5F879A3D3E90023A4
:10424000FCF74AF902460B4630463946FBF78EFF2B
:1042500006460F46FCF7F0FB00228246002330465C
:104260003946FCF7ABFB48B15046FCF7CBF8324679
:104270003B46FCF799FB08B90AF1FF3ABAF1160F71
:104280005AD8DDE902236D4901EBCA01D1E90001E9
:10429000FCF7B2FB002851D000230AF1FF3A0D933E
:1042A000129B5D1B6B1E079343BF0023C5F10109E1
:1042B00007934FF00009BAF1000F41DB079BCDF8DF
:1042C00030A053440793002308931E9B092B00F250
:1042D0008F80052BC4BF043B1E931E9BC8BF0025C7
:1042E000A3F10203D8BF0125032B00F28D80DFE884
:1042F00003F07B7D2F6FDDE912531D4405F2324040
:10430000202813DDC0F14000029B08FA00F805F2F6
:10431000124023FA00F048EA0000FCF763F801239A
:104320008046A1F1F879013D109371E7029BC0F13D
:10433000200003FA00F0F0E70123B0E70D90AFE7AB
:10434000CAF1000308930023A9EB0A090C93BCE708
:10435000012309931F9B002B74DD984604930022D0
:10436000666A7260042202F11400984271686ED984
:10437000204600F07AFD636A30601B68B8F10E0FCA
:10438000069300F2ED80002D00F0EA80DDE90223C3
:10439000BAF1000FCDE90E2377DD284A0AF00F03AA
:1043A0004FEA2A1602EBC303F006D3E90023CDE956
:1043B0000A2368D5DDE90E01214B0325D3E9082343
:1043C000FCF7B4F9CDE9020106F00F061C4F4FE0EF
:1043D000012309931F9B534403F1010804934346AF
:1043E000012BB8BF0123BAE70023B2E70023F0E7AF
:1043F0000125002309951E934FF0FF3300220493FB
:10440000984612231F92AAE701230993F4E700BFFD
:1044100061436F63A787D23FB3C8608B288AC63FCA
:10442000FB799F501344D33F0000F07F195E0008D2
:10443000105E0008ED5D00080000F83FA85E00086F
:10444000805E00080123049398461A46DAE701319A
:104450007160520087E7F10708D5DDE90A01D7E965
:104460000023FCF739F8CDE90A0101357610083749
:10447000002EF0D1DDE90A23DDE90201FCF756F94F
:10448000CDE902011BE00225A0E700F0A480DDE9F0
:104490000E01CAF10006A04B06F00F0203EBC203A7
:1044A000D3E90023FCF718F802250023CDE9020127
:1044B0009A4F3611002E40F08380002BE0D10D9BE7
:1044C000002B00F08A80DDE90223CDE90A23DDE933
:1044D0000A010022924BFCF771FA00287DD0B8F156
:1044E000000F7AD0049B002B36DDDDE90A010022A3
:1044F0008C4BFBF7F1FFCDE90201049E0AF1FF3777
:1045000001352846FBF77EFFDDE90223FBF7E4FFD8
:104510000022854BFBF72AFEA1F15075CDE90A0177
:104520000B95002E5CD1DDE9020100227F4BFBF7E9
:104530001BFE0A9A2B46CDE90201FCF75DFA002822
:1045400040F08182DDE902010A9A05F10043FCF79F
:1045500035FA002840F07582DDE90E23CDE902230B
:10456000139B002BC0F24B81BAF10E0F00F3478171
:10457000694B03EBCA03D3E90023CDE904231F9B56
:10458000002B80F2D780B8F1000F00F3D38040F009
:104590005782DDE904010022644BFBF79DFFDDE952
:1045A0000223FCF71FFA46464746002840F02D82BA
:1045B000069B069A5D1C31230AF1010A137028E25A
:1045C000F20705D5D7E90023FBF786FF0123013564
:1045D000761008376EE7022571E75746464690E7A2
:1045E0004D4B03EBC60353E90201099B002B48D056
:1045F00002460B4600204E49FCF798F8DDE90A23F5
:10460000FBF7B2FDCDE90A01069DDDE90201FCF7E9
:1046100013FA1190FBF7F6FE02460B46DDE90201A4
:10462000FBF7A2FD119BCDE90201303305F8013BF8
:10463000DDE90A23FCF7C2F9002863D1DDE9022392
:1046400000203749FBF790FDDDE90A23FCF7B6F9B6
:10465000002840F0B580069BEB1A9E427FF77CAFA6
:10466000DDE90A0100222F4BFBF736FF0022CDE9DE
:104670000A01DDE902012B4BFBF72EFFCDE9020118
:10468000C3E7DDE90A23FBF727FF069BCDE90A0113
:104690009D191E46DDE90201FCF7CEF91190FBF7EA
:1046A000B1FE02460B46DDE90201FBF75DFD119B01
:1046B000CDE90201303306F8013BAE424FF0000273
:1046C00024D1DDE90A011A4BFBF750FD02460B46E7
:1046D000DDE90201FCF790F9002871D1DDE90A2338
:1046E00000201349FBF740FD02460B46DDE90201BD
:1046F000FCF764F900283FF42FAF15F8013C6A1E5F
:10470000302B01D0BA464AE01546F6E7054BFBF7D9
:10471000E3FECDE90201BDE7A85E0008805E000867
:104720000000F03F0000244000001C400000144046
:104730000000E03F069DDDE90267DDE90423304625
:104740003946FBF7F3FFFCF777F98146FBF75AFE92
:10475000DDE90423FBF7C0FE02460B46304639462E
:10476000FBF702FD09F1300605F8016B069E0246D3
:10477000AE1BB0450B4635D1FBF7F8FCDDE9042351
:1047800006460F46FCF738F9C8B9DDE90423304680
:104790003946FCF709F910B119F0010F0FD159464C
:1047A000204600F096FB0023209A2B700AF10103AB
:1047B0001360229B002B3FF4F3AC1D60F0E45746DE
:1047C00015F8012C6B1E392A06D1069A9A4207D198
:1047D00030231370134601371A7801321A7091E7AB
:1047E0001D46EDE70022994BFBF776FE00220023E1
:1047F00006460F46FCF7D8F800289ED0CFE7099A66
:10480000002A00F088801E9A012A6DDC109A002A86
:1048100066D003F233434D46089E079A01211A449D
:1048200020469944079200F0F4FB0746002D0BDD6B
:10483000079B002B08DDAB42A8BF2B46079AA9EBCC
:104840000309ED1AD31A0793089BEBB1099B002BC0
:1048500065D08EB139463246204600F079FC5A4682
:1048600001460746204600F0DDFB59460A902046E7
:1048700000F02FFB0A9B9B46089B9A1B04D05946CD
:10488000204600F065FC83460121204600F0C1FB74
:104890000C9B0646002B00F0C6811A4601462046B6
:1048A00000F056FC1E9B0646012B3EDC029B002BB3
:1048B00037D1039BC3F31303002B34D1039B23F0A5
:1048C00000431B0D1B052BB1079B09F101090133A7
:1048D0000793012308930C9B002B28D101202EE085
:1048E000129BC3F1360396E7089B08F1FF36B342EB
:1048F000B7BF089B9E1BF21A0C9BBFBF08969B1864
:104900000C930026B8F1000FB9BFA9EB08050023EE
:104910004D46434681E7089E4D46099F86E7089A23
:10492000ADE70023D6E7029BD4E700230893336961
:1049300006EB8303186900F01EFBC0F12000079B03
:10494000184410F01F0047D0C0F12003042B3BDDBA
:10495000079BC0F11C008144054403440793B9F14F
:10496000000F05DD59464A46204600F03FFC8346CD
:10497000079B002B05DD31461A46204600F036FC29
:1049800006460D9B53B33146584600F083FC002881
:1049900024DA002359460A22204600F0B1FA099B86
:1049A0000AF1FF3A8346002B00F044810023394688
:1049B0000A22204600F0A4FA049B0746002B4DDC97
:1049C0001E9B022B4ADD11E0C9D0079A1C331A4402
:1049D00099441D441346C1E70346F6E7B8F1000FBA
:1049E00036DC1E9B022B33DDCDF81080049B63B9AF
:1049F00031460522204600F083FA01460646584615
:104A000000F048FC00283FF7D3AD1F9B069D6FEADE
:104A1000030A4FF000093146204600F05AFA002FF1
:104A20003FF4BDAEB9F1000F05D0B94503D04946FA
:104A3000204600F04EFA3946204600F04AFAAEE62B
:104A400000263746E1E7BA463746B1E50000244084
:104A5000099BCDF81080002B00F0F380002D05DDC0
:104A600039462A46204600F0C1FB0746089B002B2A
:104A70004CD07968204600F0F8F905463A6907F10C
:104A80000C01023292000C3000F0E4F901222946B8
:104A9000204600F0ABFBB9460746069B0793029BF6
:104AA00003F00103089331465846FFF7A1FA49463F
:104AB000054600F13008584600F0ECFB3A460290FB
:104AC0003146204600F000FCC368024603BB0146A5
:104AD0000990584600F0DEFB0346099A114620462D
:104AE000099300F0F6F9099BA3B91E9A92B9089AA6
:104AF00082B9B8F1390F29D0029B002B01DD05F1F5
:104B00003108079B5D1C83F8008084E73846C2E7C4
:104B10000123E3E7029A002A04DB23D11E9A0ABB91
:104B2000089AFAB9002BECDD59460122204600F024
:104B30005DFB3146834600F0ADFB002803DCE0D18D
:104B400018F0010FDDD0B8F1390FD8D1079B079AC3
:104B50005D1C3923137015F8013C6A1E392B4DD0AA
:104B6000013352E0079A002B02F1010506DDB8F18E
:104B7000390FEBD008F10108079BC4E7069B049AA4
:104B8000EB1A934205F8018C21D0594600230A22E2
:104B9000204600F0B5F9B94583464FF000034FF0C9
:104BA0000A024946204605D100F0AAF98146074687
:104BB000079578E700F0A4F93946814600230A22D8
:104BC000204600F09DF90746F2E74FF000095946EC
:104BD0000122204600F00AFB3146834600F05AFBD2
:104BE0000028B8DC02D118F0010FB4D115F8013C4F
:104BF0006A1E302B7FF40FAF1546F7E7069B9342F2
:104C000005D13123069A0AF1010A137003E715460C
:104C1000A1E7174BFFF7E1BA229B002B7FF4BBAA59
:104C2000144BFFF7DABA1E9B012B7FF73FAE0C9BAC
:104C3000089353E6049B002B03DC1E9B022B3FF7DB
:104C4000D5AE069D31465846FFF7D2F9069B00F1D6
:104C5000300805F8018B049AEB1A9A42B5DD5946E3
:104C600000230A22204600F04BF98346EAE700BF02
:104C7000EC5D0008105E0008002310B50446C0E992
:104C80000033836081814366C281C0E9043383615C
:104C9000194608225C30FEF73BFD054B2462636237
:104CA000044BA362044BE362044B236310BD00BFBB
:104CB000295800084B58000883580008A7580008D6
:104CC000014900F085B800BF815B000870B5682518
:104CD0004A1E55430E4605F1740100F0FDFB0446E3
:104CE00040B10021C0E900160C30A06005F1680257
:104CF000FEF70EFD204670BD836910B5044633BB38
:104D0000C0E912330365124B124A1B688262984253
:104D100004BF0123836100F01FF86060204600F0AB
:104D20001BF8A060204600F017F80022E060042184
:104D30006068FFF7A1FF01220921A068FFF79CFF2F
:104D400002221221E068FFF797FF0123A36110BD43
:104D5000D85D0008C14C0008F8B51B4B07461E681B
:104D6000B36913B93046FFF7C7FF4836D6E90134B7
:104D7000013B03D5336833B13668F7E7B4F90C501B
:104D80006DB16834F4E704213846FFF79FFF3060C7
:104D90000028F1D10C2304463B602046F8BD0B4BA4
:104DA0006566C4E90055A560C4E90335C4E9055545
:104DB0000822294604F15C00FEF7AAFCC4E90D555F
:104DC000C4E91255E9E700BFD85D00080100FFFF04
:104DD0002DE9F84380468946002600F1480414B9BD
:104DE0003046BDE8F883D4E90175013F01D5246858
:104DF000F5E7AB89012B07D9B5F90E30013303D0A4
:104E000029464046C84706436835EEE7044B1B6811
:104E1000186A044B002808BF1846F030704700BFDE
:104E20000C00002070000020024B0146186800F0C2
:104E300053BB00BF0C00002010B5C9B20244904221
:104E4000034601D1002303E01C7801308C42F6D1E7
:104E5000184610BD10B5431E0A44914200D110BD42
:104E600011F8014B03F8014FF7E770B5456A0446A6
:104E70000E463DB91020FFF7D7FF6062C0E901552B
:104E80000560C560656AEB6883B1636ADB6853F8E7
:104E90002600B8B9012101FA06F56A1D92002046E4
:104EA00000F0BFFA60B1C0E901650EE021220421E3
:104EB000204600F0B6FA636AE860DB68002BE4D1B4
:104EC000002070BD026843F826200023C0E90333A8
:104ED000F7E770B5446A06460D463CB91020FFF767
:104EE000A3FF7062C0E901440460C4603DB1736A0D
:104EF0006A68DB6853F82210296043F8225070BDBD
:104F00002DE9F0411F4606460C4600230D6901F1CC
:104F1000140CDCF80000013381B202FB0171000CBB
:104F20000F0C02FB007089B201EB00419D424FEA79
:104F300010474CF8041BECDCD7B1A368AB4212DC81
:104F4000616830460131FFF790FF8046226904F125
:104F50000C01023292000C30FFF77CFF21463046F4
:104F6000FFF7B7FF444604EB850301355F61256118
:104F70002046BDE8F081020C12040346B2B90304D6
:104F8000102013F07F4F04BF1B02083013F0704F46
:104F900004BF1B01043013F0404F04BF9B000230DC
:104FA000002B06DB5B0003D5013070470020E8E7EB
:104FB000202070470368014613F007020BD0DA0780
:104FC00023D4980749BF5B089B0801200B605CBF96
:104FD0000B600220704798B2A8B910201B0C13F088
:104FE000FF0F04BF1B0A08301A0704BF1B09043057
:104FF0009A0704BF9B080230DA0702D45B0806D088
:1050000001300B6070471046E9E700207047202010
:10501000704710B50C460121FFF727FF01224461BC
:10502000026110BD2DE9F74F14460A6923698846CD
:105030009A42BEBF0B46A0461C46D8F81070D4F862
:105040001090D8F80830D8F8041007EB0906B342DE
:10505000B8BF0131FFF709FF00F114052B4600220C
:1050600005EB860E734516D304F1140208F1140102
:1050700002EB890301EB87070093009B01929342A7
:105080000CD8002E03DD5EF8043D002B5DD00661D8
:1050900003B0BDE8F08F43F8042BE3E7B2F800B0AB
:1050A000BBF1000F23D08946AC464FF0000859F8F9
:1050B000044BDCF800A0A3B21FFA8AFA0BFB03A38F
:1050C0004FEA144ADCF8004043444FEA14480BFB13
:1050D0000A84E24604EB13449BB243EA04434F457F
:1050E0004FEA14484AF8043B2BD8CCF80480019BC3
:1050F0000432B3F802A0BAF1000F20D08946A846C6
:105100004FF0000B2B68B9F800C0B8F802409BB212
:105110000AFB0C44C4465C4443EA04434CF8043B99
:1051200059F8043BB8F804B01B0C0AFB03B34F4515
:1051300003EB14434FEA134B05D8C8F80430043589
:105140009BE7D446B3E7E046DDE7013E99E7000080
:105150002DE9F843154612F0030206460F4607D024
:10516000214C013A002354F82220FFF7C9FE0746DC
:10517000AD1035D0746A3CB91020FFF755FE70624F
:10518000C0E901440460C460D6F82480D8F808401F
:105190004CB940F271213046FFF73BFF0023044633
:1051A000C8F8080003604FF00008EB070AD539463D
:1051B00022463046FFF736FF814639463046FFF734
:1051C00088FE4F466D100BD0206838B92246214624
:1051D0003046FFF727FF2060C0F800800446E4E770
:1051E0003846BDE8F88300BF705F00082DE9F0473E
:1051F0000C460746164623694FEA621A0AEB030972
:105200004968A36809F10105AB4232DB3846FFF774
:105210002CFE002380461A4600F1140153452BDB77
:1052200020692AEAEA7A04F1140316F01F0201EB5E
:105230008A0103EB800C25D00020C2F1200E8A46A3
:105240001E68964030434AF8040B53F8040B9C4503
:1052500020FA0EF014D8486008B109F10205013DAA
:105260003846C8F810502146FFF733FE4046BDE8E7
:10527000F08701315B00C7E741F823200133CDE718
:105280005146DCE7043953F8042B9C4541F8042FC0
:10529000F9D8E4E703690A6930B59B1A0CD192008A
:1052A000143014318418114454F8045D51F8042D5D
:1052B000954203D005D30123184630BDA042F3D355
:1052C000FAE74FF0FF33F7E72DE9F0470D460746C1
:1052D000114628461446FFF7DDFF061E08D1314669
:1052E0003846FFF7C2FD0123C0E90436BDE8F08768
:1052F000A4BF23462C4638466168A6BF1D4600263B
:105300000126FFF7B2FD4FF0000EC6602B6926693B
:1053100004F1140205F1140902EB860709EB830876
:1053200000F1140152F804AB59F8045B1FFA8AF338
:105330007344ACB21B1B2C0CC4EB1A4404EB234487
:105340009BB24FEA244EC84543EA0444944641F8D0
:10535000044BE7D8BC4504D351F8043D83B1066142
:10536000C4E75CF8044BA2B27244131403EB144379
:1053700092B242EA03424FEA234E41F8042BE9E796
:10538000013EE9E72DE9F3411C46DDE9086501210D
:105390009046FFF76AFDC4F31302C4F30A540746AC
:1053A00034BB0192B8F1000227D002A840F8082DC2
:1053B000FFF700FE0099F0B1019AC0F1200302FA54
:1053C00003F30B43C2407B610192019B002B14BF8E
:1053D00002210121BB613961C4B1A4F23344044408
:1053E0003460C0F135002860384602B0BDE8F08175
:1053F00042F48012D5E77961E7E701A8FFF7DAFD0B
:105400000121019B39617B612030E5E7A0F2324048
:1054100007EB810330601869FFF7ADFDC0EB411069
:10542000E1E738B502FB01F4214600F055F80546E6
:1054300018B122460021FEF76BF9284638BD00005E
:1054400038B50546002943D051F8043C0C1F002B09
:10545000B8BFE41800F046FC1E4A1368104633B982
:10546000636014602846BDE8384000F03CBCA342AD
:105470000BD921686218934201BF1A685B68521801
:10548000226063600460EDE713465A680AB1A242E5
:10549000FAD919685818A0420BD12068014458184D
:1054A00082421960DED110685268014419605A6066
:1054B000D8E702D90C232B60D4E7206821188A4250
:1054C00001BF116852680918216062605C60C9E719
:1054D00038BD00BF0002002070B5CD1C25F00305CB
:1054E00008350C2D38BF0C25002D064601DBA942DE
:1054F00003D90C233360002070BD00F0F3FB214A78
:105500001468214691B9204C23681BB9304600F03D
:105510007BF920602946304600F076F9431C24D1FF
:105520000C233046336000F0DEFBE4E70B685B1BC6
:1055300018D40B2B0FD90B60CC18CD50304600F08F
:10554000D2FB04F10B00231D20F00700C31AD3D0B7
:105550005A42E250D0E74B688C4216BF636013603A
:105560000C46EBE70C464968CCE7C41C24F0030466
:10557000A04205D0211A304600F046F90130CFD0C4
:105580002560DBE70002002004020020936810B4CD
:10559000013B002B936007DA9469A34201DB0A29DF
:1055A00002D110BC00F084B91368581C1060197047
:1055B000084610BC7047F8B506460F461446D51885
:1055C000AC4201D1002007E03A4614F8011B3046F6
:1055D000FFF7DCFF431CF3D1F8BD00002DE9F04FCD
:1055E0000C469DB017461D46064618B183690BB997
:1055F000FFF782FB7C4B9C4258D17468A389180743
:105600005ED52369002B5BD00023099320238DF8FE
:10561000293030234FF0010B8DF82A300395B8461E
:10562000454615F8013B0BB1252B54D1B8EB070AC1
:105630000BD053463A4621463046FFF7BCFF0130B7
:1056400000F0C280099B5344099398F80030002B66
:1056500000F0BA8000234FF0FF32CDE90523049318
:1056600007938DF853301A93A846052218F8011BAA
:105670005E48FFF7E1FB049B78BBD90644BF2022BC
:105680008DF853201A0744BF2B228DF853202A7817
:105690002A2A2AD0A84600200A25079A414611F84E
:1056A000013B303B092B69D960B324E0504B9C424D
:1056B00001D1B468A2E74F4B9C4208BFF4689DE754
:1056C0002146304600F058F900289DD04FF0FF30B9
:1056D0001DB0BDE8F08FA846A2E7444A4546801AAF
:1056E0000BFA00F018430490BEE7039A111D1268EC
:1056F0000391002A01DB079204E0524243F00203C7
:105700000792049398F800302E2B0ED198F80130B0
:105710002A2B38D1039B08F102081A1D1B6803923B
:10572000002BB8BF4FF0FF330593334D032298F899
:1057300000102846FFF780FB40B14023401B03FACE
:1057400000F0049B08F101080343049398F800104B
:1057500006222A4808F101078DF82810FFF76CFB94
:10576000002837D0264B1BBB039B073323F00703CE
:1057700008330393099B4B44099350E705FB02321E
:10578000012088468AE700230A25194608F1010806
:105790000593404610F8012B303A092A03D9002B13
:1057A000C3D00591C1E705FB012101238046F0E745
:1057B00003AB00932246134B04A93046FEF742F890
:1057C000B0F1FF3F8146D5D1A3895B063FF57EAF9F
:1057D00009987DE703AB009322460A4B04A93046A3
:1057E000FEF7DCFAECE700BF405E00087C5F0008D3
:1057F000605E0008205E0008825F0008865F000887
:1058000045380008B755000838B50023054C054653
:1058100008462360FBF7ACFB431C02D1236803B1AD
:105820002B6038BD7C02002010B50C46B1F90E107B
:1058300000F05AFA0028ABBF636DA3891B1823F44C
:105840008053ACBF6365A38110BD2DE9F0411F46B5
:105850008B890546DB050C46164605D5022300223A
:10586000B1F90E1000F0B6F9A389324623F4805343
:10587000A381B4F90E103B462846BDE8F04100F084
:1058800069B810B50C46B1F90E1000F0A3F9431C2D
:10589000A38915BF606523F4805343F48053A3812B
:1058A00018BFA38110BDB1F90E1000F0D3B80000ED
:1058B000F8B50E461446054618B183690BB9FFF7D3
:1058C0001BFA214B9C422AD16C68A369A360A3896F
:1058D0001A072ED5236963B323692068F6B2C01A6C
:1058E00063693746834204DC2146284600F048F9C4
:1058F00028BBA3680130013BA36023685A1C2260C7
:105900001E706369834204D0A389DB0719D50A2E70
:1059100017D12146284600F033F990B10FE00B4B28
:105920009C4201D1AC68D0E7094B9C4208BFEC68AF
:10593000CBE72146284600F01FF80028CCD04FF0D6
:10594000FF373846F8BD00BF405E0008605E0008C3
:10595000205E000838B50546084611460022054C71
:1059600022601A46FBF750FA431C02D1236803B1A8
:105970002B6038BD7C020020324B70B51D68064696
:105980000C4625B1AB6913B92846FFF7B5F92E4B84
:105990009C420FD16C68B4F90C309AB215072CD424
:1059A000D00611D40922326043F04003A3814FF0A6
:1059B000FF303EE0254B9C4201D1AC68EBE7244B25
:1059C0009C4208BFEC68E6E7510712D5616B41B114
:1059D00004F14403994202D03046FFF731FD002321
:1059E0006363A38923F02403A381002363602369F5
:1059F0002360A38943F00803A38123694BB9A389DA
:105A000003F42073B3F5007F03D02146304600F045
:105A100017F9A28912F001030CD00023A360636977
:105A20005B42A361236953B9B4F90C3013F08000D1
:105A3000BAD170BD920758BF6369A360F2E7002036
:105A4000F7E700BF0C000020405E0008605E000821
:105A5000205E000838B50023054C05460846236043
:105A6000FBF7B2FA431C02D1236803B12B6038BDA7
:105A70007C0200208A892DE9F041054610070C467A
:105A800058D44B68002B05DC0B6C002B02DC00208B
:105A9000BDE8F081E66A002EF9D0002312F48052AE
:105AA0002F68216A2B6032D0606DA3895A0705D513
:105AB0006368C01A636B0BB1236CC01A00230246E3
:105AC000E66A216A2846B047431CA38906D12968A3
:105AD0001D2948D8294ACA40D60744D50022626009
